S0190000504F4C454D2020446174614C6F676765722E7372656374
S11300000C9434000C9457000C9446000C94460055
S11300100C9446000C9446000C9446000C94460044
S11300200C9446000C9446000C9446000C94460034
S11300300C9446000C9446000C9446000C94460024
S11300400C9446000C942F010C9446000C9446002A
S11300500C9446000C94A9000C9446000C944600A1
S11300600C9446000C94460011241FBECFEFD8E038
S1130070DEBFCDBF21E0A0E0B1E001C01D92AC30F5
S1130080B207E1F70E944C010C9466010C94000045
S113009052985A9A85B78F7E85BFE9E6F0E0808151
S11300A08260808380818E7F8083E89A08951F9286
S11300B00F920FB60F9211242F933F934F935F9398
S11300C06F937F938F939F93AF932091040130910B
S11300D0050140910601509107016091080170915A
S11300E0090180910A0190910B01A1E00E945A013B
S11300F020930401309305014093060150930701B6
S1130100609308017093090180930A0190930B0195
S1130110AF919F918F917F916F915F914F913F919B
S11301202F910F900FBE0F901F901895ECE7F0E001
S11301308081806C80838081807D8083EAE7F0E029
S113014080818F688083EEE7F0E080818F63808315
S113015008951F920F920FB60F9211242F938F932D
S11301609F93809179002091780090E0982F8827C0
S1130170820F911D909303018093020181E080938B
S113018001019F918F912F910F900FBE0F901F909F
S113019018958AB188618AB98BB188618BB9089541
S11301A0109200018EBD80910001811101C0FFCF2A
S11301B08EB508958CB5837D8CBD8CB580618CBD66
S11301C08DB58E7F8DBD8CB582608CBD8CB58E7FD8
S11301D08CBD84B18C6284B924988CB5806C8CBD40
S11301E02A9A8AE09FEF9EBD8150E9F72A9880E41D
S11301F00E94D00080E00E94D00080E00E94D000E5
S113020080E00E94D00080E00E94D00085E90E9436
S1130210D0008FEF0E94D0002A9A882339F32A98BD
S113022081E40E94D00080E00E94D00080E00E941F
S1130230D00080E00E94D00080E00E94D00081E0E5
S11302400E94D0008FEF0E94D0002A9A8111E7CF3C
S11302508DB581608DBD8CB58C7F8CBD08951F924A
S11302600F920FB60F9211248F9381E080930001B7
S11302708F910F900FBE0F901F901895E0E8F0E05B
S113028080818F728083A1E8B0E08C91877E8C930B
S113029080818C7F808308950E9448000E9496008C
S11302A00E94C9000E94DA000E943E01789480E016
S11302B090E008950024A7FD00942A0F301D401DEE
S11302C0501D601D701D801D901D0895F894FFCF72
S9030000FC
