S0190000504F4C454D2020446174614C6F676765722E7372656374
S11300000C9434000C9446000C9446000C94460066
S11300100C9446000C9446000C9446000C94460044
S11300200C9446000C9446000C9446000C94460034
S11300300C9446000C9446000C9446000C94460024
S11300400C9446000C9446000C9446000C94460014
S11300500C9446000C9446000C9446000C94460004
S11300600C9446000C94460011241FBECFEFD8E038
S1130070DEBFCDBF21E0A0E0B1E001C01D92A03001
S1130080B207E1F70E9465000C946A000C9400002A
S11300908CB58F7D8CBD8CB580618CBD8CB5826038
S11300A08CBD8CB58E7F8CBD8DB58E7F8DBD8CB592
S11300B0877F8CBD8CB58B7F8CBD84B18C6284B9F9
S11300C024988CB580648CBD08950E94480080E01B
S10B00D090E00895F894FFCFBD
S9030000FC
