:100000000C9434000C9446000C9446000C9446006A
:100010000C9446000C9446000C9446000C94460048
:100020000C9446000C9446000C9446000C94460038
:100030000C9446000C9446000C9446000C94460028
:100040000C9446000C9446000C9446000C94460018
:100050000C9446000C9446000C9446000C94460008
:100060000C9446000C94460011241FBECFEFD8E03C
:10007000DEBFCDBF21E0A0E0B1E001C01D92A03005
:10008000B207E1F70E9455000C945A000C9400004E
:10009000E9E6F0E080818260808380818E7F8083CA
:1000A000E89A8FB780688FBF08950E94480080E06B
:0800B00090E00895F894FFCFE1
:00000001FF
