S0190000504F4C454D2020446174614C6F676765722E7372656374
S11300000C9434000C9446000C9446000C94460066
S11300100C9446000C9446000C9446000C94460044
S11300200C9446000C9446000C9446000C94460034
S11300300C9446000C9446000C9446000C94460024
S11300400C9446000C9446000C9446000C94460014
S11300500C9446000C9446000C9446000C94460004
S11300600C9446000C94460011241FBECFEFD8E038
S1130070DEBFCDBF21E0A0E0B1E001C01D92A03001
S1130080B207E1F70E94B6000C94BD000C94000086
S11300908CB58F7D8CBD8CB580618CBD8CB5826038
S11300A08CBD8CB58E7F8CBD8DB58E7F8DBD8CB592
S11300B0877F8CBD8CB58B7F8CBD84B18C6284B9F9
S11300C024988CB580648CBD08958CB582608CBDF9
S11300D08CB58E7F8CBD8DB58E7F8DBD2A9A8AE0BE
S11300E090E02FEF2EBD01970097E1F70DB407FEC6
S11300F0FDCF30E425E99FEF2A983EBD0DB407FEFD
S1130100FDCF1EBC1EBC1EBC1EBC0DB407FEFDCF25
S11301102EBD0DB407FEFDCF9EBD0DB407FEFDCF71
S11301208EB52A9A80FFE8CF31E421E09FEF2A9828
S11301303EBD0DB407FEFDCF1EBC1EBC1EBC1EBCC6
S11301400DB407FEFDCF2EBD0DB407FEFDCF9EBD41
S11301500DB407FEFDCF8EB52A9A8111E8CF8CB578
S11301608C7F8CBD8DB581608DBD08950E94480043
S11101700E94650080E090E00895F894FFCFAF
S9030000FC
