S0190000504F4C454D2020446174614C6F676765722E7372656374
S11300000C9434000C9448000C9446000C94460064
S11300100C9446000C9446000C9446000C94460044
S11300200C9446000C9446000C9446000C94460034
S11300300C9446000C9446000C9446000C94460024
S11300400C9446000C9401010C9446000C94460058
S11300500C9446000C9487000C9446000C944600C3
S11300600C9446000C94460011241FBECFEFD8E038
S1130070DEBFCDBF21E0A0E0B1E001C01D92AC30F5
S1130080B207E1F70E9410010C9424010C940000C3
S11300901F920F920FB60F9211242F933F934F93F9
S11300A05F936F937F938F939F93AF9320910401FA
S11300B030910501409106015091070160910801BA
S11300C07091090180910A0190910B01A1E00E94B5
S11300D018012093040130930501409306015093C5
S11300E00701609308017093090180930A019093BA
S11300F00B01AF919F918F917F916F915F914F9180
S11301003F912F910F900FBE0F901F9018951F9243
S11301100F920FB60F9211242F938F939F93809178
S113012079002091780090E0982F8827820F911D04
S1130130909303018093020181E0809301019F91D8
S11301408F912F910F900FBE0F901F9018958AB129
S113015088618AB98BB188618BB908955C9A5B9880
S113016008955C985B9A0895109200018EBD809169
S11301700001811101C0FFCF8EB508958CB58F7D2C
S11301808CBD8CB580618CBD8CB5837F8CBD8DB5E9
S11301908E7F8DBD8CB582608CBD8CB58E7F8CBD01
S11301A084B18C6284B924988CB580688CBD8CB57C
S11301B080648CBD2A9A8AE090E02FEF2EBD0197CF
S11301C00097E1F72A9880E40E94B40080E00E943E
S11301D0B40080E00E94B40080E00E94B40080E09B
S11301E00E94B40085E90E94B4008FEF0E94B4001D
S11301F02A9A813019F40E94AE0008950E94B10039
S113020008951F920F920FB60F9211248F9381E0DD
S1130210809300018F910F900FBE0F901F9018953F
S11302200E94A7000E94BE00789480E090E00895A8
S11302300024A7FD00942A0F301D401D501D601D91
S10F0240701D801D901D0895F894FFCFE0
S9030000FC
